:020000040800F2
:10000000F067002441030008E94600082146000883
:10001000E1460008590800083169000800000000A6
:10002000000000000000000000000000F14900088E
:10003000D109000800000000F1460008194A000834
:100040005B0300085B0300085B0300085B03000818
:100050005B0300085B0300085B0300085B03000808
:100060005B0300085B0300085B0300085B030008F8
:100070005B0300085B0300085B0300085B030008E8
:100080005B0300085B0300085B0300085B030008D8
:100090005B0300085B0300085B0300085B030008C8
:1000A0005B0300085B0300085B0300085B030008B8
:1000B0005B0300085B0300085B0300085B030008A8
:1000C0005B0300085B0300085B0300085B03000898
:1000D0005B0300085B0300085B0300080162000883
:1000E0005B0300085B030008000000005B030008DE
:1000F0005B0300085B0300085B0300085B03000868
:100100005B0300085B0300085B0300085B03000857
:100110005B0300085B0300085B0300085B03000847
:100120005B0300085B0300085B0300085B03000837
:100130005B0300085B0300085B0300085B03000827
:1001400000000000000000000000000000000000AF
:100150005B0300085B0300085B0300085B03000807
:100160005B0300085B0300085B0300085B030008F7
:100170005B0300085B0300085B030008000000004D
:100180005B0300085B0300085B0300085B030008D7
:100190005B0300085B0300085B0300085B030008C7
:1001A0005B0300085B0300085B0300085B030008B7
:1001B0005B0300085B0300085B0300085B030008A7
:1001C0005B0300085B0300085B0300085B03000897
:1001D0005B0300085B0300085B0300085B03000887
:1001E0005B0300085B0300085B0300085B03000877
:1001F0005B0300085B0300085B0300085B03000867
:100200005B0300085B0300085B0300085B03000856
:100210005B0300085B0300085B0300085B03000846
:100220005B0300085B0300085B030008000000009C
:100230005B0300085B030008000000005B0300088C
:100240005B0300085B0300085B0300085B03000816
:100250005B0300085B0300085B0300085B03000806
:100260005B0300085B0300085B0300085B030008F6
:100270005B0300085B0300085B030008000000004C
:100280005B0300085B0300085B030008000000003C
:10029000000000005B03000800F002F800F040F8E6
:1002A0000AA090E8000C82448344AAF10107DA45D1
:1002B00001D100F035F8AFF2090EBAE80F0013F0E3
:1002C000010F18BFFB1A43F001031847F470000038
:1002D00014710000103A24BF78C878C1FAD85207C8
:1002E00024BF30C830C144BF04680C6070470000B0
:1002F0000023002400250026103A28BF78C1FBD82F
:10030000520728BF30C148BF0B6070471FB507F0C8
:1003100027F89DE8030000F08DF91FBD10B510BD52
:1003200000F016FA1146FFF7F1FF06F005FB00F0AA
:1003300034FA03B4FFF7F2FF03BC00F065FA0000E3
:100340000948804709480047FEE7FEE7FEE7FEE769
:10035000FEE7FEE7FEE7FEE7FEE7FEE704480549A5
:10036000054A064B70470000F14A00089902000850
:10037000F0070024F0670024F0270024F027002471
:1003800070B5064600F03AF9056806F10B0020F05A
:100390000704B4429CBF002070BD2B466A68BAB106
:1003A0001068A04210D304F1080188423CBF506895
:1003B000586007D35168101941601168091B01602A
:1003C00058601460101D70BD13465268002AE7D1B2
:1003D0002146284600F01AF90028DED170BD70B51C
:1003E0000446051F00F00AF90068002C14BF446899
:1003F00070BD002C18BFAC423CBF20466468F8D3E7
:1004000001680A18AA4218BF456003D12A68054648
:100410001144016028684119A1421CBF6C6070BD85
:100420006168696021680844286070BD53EA020C65
:1004300000F069802DE9F04B4FF00006002B1FBF44
:10044000B3FA83F503FA05F424FA05F65E4012BF09
:100450001643B2FA82F502FA05F4C5F120051EBF73
:1004600022FA05FC44EA0C04203556EA044C4FEA13
:10047000144418BF641C4FF000084FF0000990426C
:1004800071EB030C39D3002919BFB1FA81F701FAD6
:1004900007F6B0FA80F700FA07F6C7F120071EBF8B
:1004A00020FA07FC46EA0C062037B6FBF4FCA7EB63
:1004B0000507103F07F01F0BCBF120062CFA06F6BC
:1004C0000CFA0BFB44BFB3460026202FA4BF5E46A8
:1004D0004FF0000B5BEA060C08BF4FF0010B19EB65
:1004E0000B0948EB0608ABFB027C06FB02CC0BFBBE
:1004F00003CCC01B71EB0C01C1E70B460246414621
:100500004846BDE8F08B13B5084318BF4FF0FF30E5
:100510000146AFF30080BDE81C407047032A40F25B
:10052000308010F0030C00F0158011F8013BBCF195
:10053000020F624498BF11F801CB00F8013B38BFAD
:1005400011F8013BA2F1040298BF00F801CB38BFBB
:1005500000F8013B11F0030300F0A280083AC0F05C
:10056000088051F8043B083A51F804CBA0E8081081
:10057000F5E7121D5CBF51F8043B40F8043BAFF3B4
:100580000080D20724BF11F8013B11F801CB48BF0E
:1005900011F8012B24BF00F8013B00F801CB48BF44
:1005A00000F8012B70474FF0000200B51346944647
:1005B0009646203922BFA0E80C50A0E80C50B1F1BB
:1005C0002001BFF4F7AF090728BFA0E80C5048BFCF
:1005D0000CC05DF804EB890028BF40F8042B08BF6D
:1005E000704748BF20F8022B11F0804F18BF00F869
:1005F000012B7047704770477047000000487047F4
:1006000018000024704770477047704738B504469B
:100610000A4600206946AFF30080002808BF38BDB5
:1006200002460099204600F071F8012038BD0120F3
:1006300000F086B8F8B5AFF30080054600200C4600
:10064000102000BF0646A819A0420DD932466946BF
:100650000020AFF30080070008BF00F071F8009899
:10066000A04218BF0546C419FFF7C8FF056007463A
:10067000F01D20F007004619284600F00AF8B442A1
:1006800008BFF8BDA21B31463868BDE8F84000F04D
:100690003DB800210160C0E901107047102070478B
:1006A00010B5203AC0F00B80B1E81850A0E81850FF
:1006B000B1E81850A0E81850203ABFF4F5AF5FEA4F
:1006C000027C24BFB1E81850A0E8185044BF18C9F4
:1006D00018C0BDE810405FEA827C24BF51F8043B9B
:1006E00040F8043B08BF7047D20728BF31F8023BEF
:1006F00048BF11F8012B28BF20F8023B48BF00F883
:10070000012B7047004870471000002403464068E2
:100710008C46002818BF88423CBF03464068F8D387
:1007200018681844884207D00CF1030020F0070035
:10073000001D411A521A0146081D0A60FFF74FBEFC
:1007400010B500F039F8BDE8104000F02FB8704740
:100750007546FFF7D7FFAE4605006946534620F0C1
:100760000700854618B020B5FFF7F8FDBDE820402A
:100770004FF000064FF000074FF000084FF0000B5D
:10078000AC46ACE8C009ACE8C009ACE8C009ACE8CC
:10079000C00921F007018D46704710B50446AFF33C
:1007A00000802046BDE81040FFF7C3BD002801D0FF
:1007B00000F02AB87047000010B5012805D00021CC
:1007C00003A000F027F8012010BD09A1F8E7000000
:1007D00053494752544D454D3A204F7574206F662A
:1007E0002068656170206D656D6F72790000000092
:1007F0003A2048656170206D656D6F727920636F76
:10080000727275707465640001491820ABBEFEE712
:100810002600020070B505460C460A2000E06D1C5B
:1008200000F011F835B128780028F8D102E0641CF6
:1008300000F009F814B120780028F8D1BDE8704024
:100840000A20AFF3008008B569468DF80000032048
:10085000ABBE08BD00000000FEE700000000000085
:10086000F0B5ADF5806D48F2203346F2581ECEF655
:10087000B8530022EC46C4F6B25E00BF83EA92058C
:1008800012F0020408BF950883EA5506EF0708BF77
:100890006E0883EA5605F70708BF750883EA550610
:1008A000EF0708BF6E0883EA5605F70708BF75080B
:1008B00083EA5506EF0708BF6E0883EA5605F70777
:1008C00008BF7508002C744604BF42F2C804C3F682
:1008D0006E34560784EAD20448BF5C4083EA54066B
:1008E000E70708BF660883EA5604F70708BF7408DD
:1008F00083EA5406E70708BF660883EA5604F70749
:1009000008BF74084CF822500CEB820683EA5405A9
:100910000232E70708BF6508B2F5807F7560ADD188
:1009200041B14A1E01F00303032A07D24FF0FF3101
:100930002EE000BF00200DF5806DF0BD21F0030218
:100940004FF0FF31CEB210F8047B043A87EA060775
:1009500010F8036C5CF8277087EA1121CFB287EAA0
:10096000060710F8026C5CF8277087EA1121CFB2F5
:1009700087EA060710F8016C5CF8277087EA1121F6
:10098000CFB287EA06075CF8277087EA1121D9D130
:10099000D3B1CFB20278012B82EA07025CF82220A1
:1009A00082EA112110D0CFB24278022B82EA0702EC
:1009B0005CF8222082EA112106D0CAB28078504029
:1009C0005CF8200080EA1121C8430DF5806DF0BD70
:1009D000704700000000000010B540F20044EFF343
:1009E000108072B6C5F602044FF48041204600F034
:1009F000B7FDC82000F068FC4FF48041204600F0AD
:100A0000AFFDC82000F060FC4FF48041204600F0AC
:100A1000A7FDC82000F058FC4FF48041204600F0AC
:100A20009FFDC82000F050FC4FF48041204600F0AC
:100A300097FDC82000F048FC4FF48041204600F0AC
:100A40008FFDC82000F040FC4FF48041204600F0AC
:100A500087FDC82000F038FC4FF48041204600F0AC
:100A60007FFDC82000F030FC4FF48041204600F0AC
:100A700077FDC82000F028FC4FF48041204600F0AC
:100A80006FFDC82000F020FC4FF48041204600F0AC
:100A900067FDC82000F018FC4FF48041204600F0AC
:100AA0005FFDC82000F010FC4FF48041204600F0AC
:100AB00057FDC82000F008FC4FF48041204600F0AC
:100AC0004FFDC82000F000FC4FF48041002220467A
:100AD000BDE8104000F04CBD2DE9F041044600F0A7
:100AE00057FD1CB3054694F83500022822D140F288
:100AF0000F462768C4F2020640F26F48B7426FF013
:100B00000E00C4F202081DDC6F21C4F202018F4204
:100B10002ADC3F21C4F202018F4241DC1021C4F2E1
:100B200002018F4263D028215CE000BF0120BDE8B4
:100B3000F08100BF802060650120002184F834101E
:100B4000BDE8F08147451BDC40F23F41C4F20201A1
:100B50008F422DDC40F21041C4F202018F4246D098
:100B600040F228413EE000BF9F21C4F202018F42C3
:100B700028DC7021C4F202018F4238D0882131E094
:100B800040F29F41C4F202018F4223DC40F27041E7
:100B9000C4F202018F422AD040F2884122E000BF15
:100BA0004021C4F202018F4221D058211AE000BF37
:100BB00040F24041C4F202018F4218D040F2584145
:100BC00010E000BFA021C4F202018F420FD0B82173
:100BD00008E000BF40F2B841C4F202018F4206D0E3
:100BE00040F2A041C4F202018F42394607D1394692
:100BF000386820F01E0041F8140B6FF080000A687E
:100C0000474500EA020008601ADC9F20C4F2020097
:100C1000874233DC5720C4F2020087425ADC10209E
:100C2000C4F20200874200F097802820C4F202003C
:100C3000874200F091804020C4F202008AE000BFA9
:100C400045F22F40C5F6020087422DDC40F2B74046
:100C5000C4F2020087424BDC40F27040C4F2020052
:100C6000874279D040F28840C4F20200874273D0B4
:100C700040F2A040C4F202006CE000BF40F2274006
:100C8000C4F20200874243DCA020C4F20200874283
:100C900062D0B820C4F2020087425DD040F210401A
:100CA000C4F2020056E000BF45F26B40C5F60200F8
:100CB00087423FDC45F23040C5F6020087424BD008
:100CC00045F24440C5F60200874245D045F25840FF
:100CD0003EE000BF5820C4F2020087423CD07020A2
:100CE000C4F20200874237D08820C4F2020031E00B
:100CF00040F2B840C4F2020087422DD045F20840CD
:100D0000C5F60200874227D045F21C4020E000BF14
:100D100040F22840C4F2020087421DD040F2404019
:100D2000C4F20200874217D040F25840C4F20200D9
:100D300010E000BF45F26C40C5F6020087420BD0C0
:100D400045F29440C5F60200874205D045F2804046
:100D5000C5F60200874204D1206E016821F480713B
:100D60000160386820F00100386000BF3868C007B3
:100D700010D000F00DFC401B0628F7D32020606542
:100D8000032084F835000120002184F83410BDE8E8
:100D9000F08100BF2068B04210DC6F21C4F2020174
:100DA00088421DDC3F21C4F20201884234DC10215C
:100DB000C4F20201884255D028214FE040451BDC97
:100DC00040F23F41C4F2020188422DDC40F2104162
:100DD000C4F20201884245D040F228413EE000BF03
:100DE0009F21C4F20201884228DC7021C4F2020172
:100DF000884237D0882131E040F29F41C4F202019D
:100E0000884223DC40F27041C4F20201884229D0BA
:100E100040F2884122E000BF4021C4F20201884232
:100E200020D058211AE000BF40F24041C4F2020134
:100E3000884217D040F2584110E000BFA021C4F210
:100E4000020188420ED0B82108E000BF40F2B8414C
:100E5000C4F20201884205D040F2A041C4F202016E
:100E600088425BD1D4E9161202F01F023F2303FA35
:100E700002F28A6040455BDC9F21C4F20201884295
:100E800014DC5721C4F20201884227DC1021C4F28D
:100E90000201884200F0A2802821C4F202018842A7
:100EA00000F09C804021C4F2020195E040F227410D
:100EB000C4F2020188421FDCA021C4F20201884270
:100EC00000F08C80B821C4F20201884200F08680D4
:100ED00040F21041C4F202017EE000BF5821C4F28A
:100EE000020188427AD07021C4F20201884275D092
:100EF0008821C4F202016FE040F22841C4F20201ED
:100F000088426BD040F24041C4F20201884265D071
:100F100040F25841C4F202015EE000BFD4E916126B
:100F200002F01F02012303FA02F24A604045A3DDEA
:100F300045F22F41C5F60201884217DC40F2B74165
:100F4000C4F20201884227DC40F27041C4F202017F
:100F5000884243D040F28841C4F2020188423DD029
:100F600040F2A041C4F2020136E000BF45F26B41FD
:100F7000C5F6020188421FDC45F23041C5F6020188
:100F800088422BD045F24441C5F60201884225D063
:100F900045F258411EE000BF40F2B841C4F20201E0
:100FA00088421BD045F20841C5F60201884215D09F
:100FB00045F21C410EE000BF45F26C41C5F602014E
:100FC00088420BD045F29441C5F60201884205D013
:100FD00045F28041C5F6020188420BD1616EA26ED6
:100FE000E06E4A6030B1016821F480710160D4E99B
:100FF0001C014160012084F835000020002184F8A4
:101000003410BDE8F081000080B5D8B190F83510FB
:10101000022919D140F20F420168C4F20202914242
:1010200016DC6F23C4F20203994227DC3F23C4F28B
:10103000020399423EDC1023C4F2020399425FD0BE
:10104000282359E0012080BD80214165012080BD19
:1010500040F26F43C4F2020399421BDC40F23F436B
:10106000C4F2020399422DDC40F21043C4F20203A1
:10107000994245D040F228433EE000BF9F23C4F28E
:101080000203994228DC7023C4F20203994237D04C
:10109000882331E040F29F43C4F20203994223DCEB
:1010A00040F27043C4F20203994229D040F28843CF
:1010B00022E000BF4023C4F20203994220D058230B
:1010C0001AE000BF40F24043C4F20203994217D035
:1010D00040F2584310E000BFA023C4F2020399423B
:1010E0000ED0B82308E000BF40F2B843C4F20203B8
:1010F000994205D040F2A043C4F20203994275D14F
:1011000091424FF0040280F8352011DC6F20C4F2C8
:101110000200814222DC3F20C4F20200814239DC1D
:101120001020C4F20200814259D0282054E000BFB0
:1011300040F26F40C4F2020081421BDC40F23F40AB
:10114000C4F2020081422DDC40F21040C4F20200E1
:10115000814244D040F228403EE000BF9F20C4F2CC
:101160000200814228DC7020C4F20200814236D0A5
:10117000882031E040F29F40C4F20200814223DC2B
:1011800040F27040C4F20200814228D040F2884010
:1011900022E000BF4020C4F2020081421FD058204C
:1011A0001AE000BF40F24040C4F20200814216D073
:1011B00040F2584010E000BFA020C4F2020081427B
:1011C0000DD0B82008E000BF40F2B840C4F20200E1
:1011D000814204D040F2A040C4F20200814208687B
:1011E00020F001000860002080BD00BF0A6822F0E6
:1011F0000E020A6045F25742C5F6020291420A68A1
:1012000022F001020A600FDC45F22F42C5F602020D
:10121000914219DC45F20842C5F60202914229D0FA
:1012200045F21C4222E000BF45F27F42C5F60202B1
:10123000914213DC45F25842C5F60202914219D0A0
:1012400045F26C4212E000BF45F23042C5F60202A0
:1012500091420FD045F2444208E000BF45F294426B
:10126000C5F60202914205D045F28042C5F602025F
:1012700091421AD1D0E9181CD0E916E30A6822F489
:1012800080720A6003F01F01012202FA01F1CEF818
:101290000410816ECCF80410C16E31B10A6822F4DA
:1012A00080720A60D0E91C124A60012180F8351072
:1012B000026D002180F834100AB1904700210846E1
:1012C00080BD000000000000B0B5044600F060F9E9
:1012D00040F200010546C2F20041621C097818BFC5
:1012E0000C4400BF00F054F9401BA042FAD3B0BD3B
:1012F00042F20C01C5F20021086840F001000860CC
:101300000868C0074FF0010008BF7047D1F80021FE
:1013100042F00102C1F80021D1F800118843704762
:1013200042F20400C5F200208168C9070CD040F2E7
:101330002311C4F26751016048F6AB11CCF6EF51AE
:1013400001608168C90715D1D0F80811C9070FD00D
:1013500040F22311C4F26751C0F8001148F6AB11F6
:10136000CCF6EF51C0F80011D0F80801C00701D148
:1013700000207047012070472DE9F04F85B08E4660
:1013800042F20042C5F602020A2102909042DEF8C3
:10139000005008BF0921002D009100F0DD80029867
:1013A000002400F12642009802F1FF7201274FEA63
:1013B000B2230026092B4FF0000838BF1846CDF89D
:1013C0000CE000900EE000BFDEF8005008F10108CC
:1013D00035FA07F006F1020607F1010704F10404EB
:1013E00000F0BA80A7F1010A012000FA0AF315EA19
:1013F0000309E9D0DEF804B00BF003056A1E012AE8
:1014000022D802984FEA4801D0F808C00191032180
:1014100001FA06F203992CEA020CD1F80CE00EFA5C
:1014200006F1DDF80CE041EA0C01816041686FEAE9
:10143000020CCBF3001299430346019802FA0AF218
:10144000114359600CE000BF0320032D00FA06F0A1
:10145000029B6FEA000C304602D13046032526E09D
:10146000D968DEF8082001EA0C018240022D41EA29
:101470000201D9601BD102466FF0030000EA5A0155
:101480000F20194404F01C0300FA03F51046D1F8AC
:1014900020E0039A2EEA0505DDF80CE012699A4077
:1014A000029B2A430A62DEF804B00BF003051968B8
:1014B00005FA00F001EA0C011BF4403F40EA01008C
:1014C00018603FF481AF44F2F44140F20845C5F69C
:1014D0000201C5F600050F23086840F0020008600D
:1014E000086800F0020004902AF00300049904F058
:1014F0000C0142598B409A43009B03FA01F11143BE
:1015000041514FF0B0452868DEF8041040EA090266
:10151000CB0258BF20EA09028B022A6040F2040580
:10152000C5F60005286840EA090258BF20EA09020A
:101530008B032A60D5F8800040EA090258BF20EAF0
:101540000902C903C5F88020E86F40EA090258BFC4
:1015500020EA0902EA6737E705B0BDE8F08F00002E
:10156000426902EA0103914341EA03418161704704
:10157000002A08BF090481617047000000000000D4
:1015800041F20000C5F600400068000C7047000002
:1015900040F2E870C2F200400068704700000000AE
:1015A00090F84120202A03D190F84020012A01D14F
:1015B00002207047242280F841200268136823F03B
:1015C00001031360136823F48053136013681943F5
:1015D0001160116841F001011160202180F8411073
:1015E000002180F84010084670470000000000000D
:1015F00090F84120202A03D190F84020012A01D1FF
:1016000002207047242280F841200268136823F0EA
:1016100001031360136823F4706343EA012111602E
:10162000116841F001011160202180F84110002172
:1016300080F840100846704710B310B5044690F883
:10164000410028B9002084F84000204600F048F806
:10165000242084F8410094E80910E2680168012A16
:1016600021F00101016023F070610161816821F4C2
:101670000041816006D14CF4004181600AE000BF66
:1016800001207047022A4CF40441816002D14FF4DA
:1016900000614160416804F1100C41F0007141F4B7
:1016A00000414160C16821F40041C1609CE80E1016
:1016B000114341EA0321C160216A41EA0C01016042
:1016C000016841F00101016000206064202184F87C
:1016D0004110206384F8420010BD000000000000AB
:1016E00010B5B6B002A90446081DB821FEF75BFF8D
:1016F00045F200412068C4F20001884202D036B0B1
:1017000010BD00BF0820029002A800F07DFB08B1C8
:10171000FFF762F944F2E04431A9C5F602042068FB
:1017200040F002002060206800F002003190319803
:101730004FF410703190122032900020CDE9330028
:101740000420359040F20040C5F60200FFF714FE79
:10175000A06840F40010A060A06800F400100190A0
:10176000019836B010BD000040F2000040F2E87170
:10177000C2F20040C2F2004100780A6810440860DA
:10178000704700000000000080B5032000F0A8F8BA
:1017900001F02AFB44F2184147F28633C5F60201F4
:1017A000C0F600030A68096801F00F01C2F30322C2
:1017B000595C9A5C01F01F0102F01F02D04040F218
:1017C0000C02C2F2004220FA01F1116040F208015D
:1017D000C2F200410860002000F00AF800281CBF97
:1017E000012080BD00F02CF8002080BD000000002A
:1017F00070B540F20006C2F200463178E1B104460D
:1018000040F20800C2F200404FF47A72B2FBF1F1EC
:101810000068B0FBF1F002F0A7F80F2C4FF00105C3
:1018200008D838B94FF0FF3000222146002500F0DB
:1018300027F87460284670BD012070BD00000000CC
:1018400081B044F2F440C5F60200016841F00201A3
:101850000160006800F002000090009801B070473D
:10186000002848BF704700F01F01012202FA01F171
:101870004EF200124009CEF2000242F820107047EA
:10188000B0B54EF60C5C00F00F05CEF2000C043D36
:101890006544DCF800304FF0FF3CC3F3022E8EF0BD
:1018A0000703042B28BF0423BEF1030438BF002420
:1018B0000CFA03F3B0F1FF3F21EA030105F10C0339
:1018C00000F160450CFA04F0C8BF05F56443A1407F
:1018D00022EA0000084300011870B0BD00000000BB
:1018E0004EF60C514FF6FF03CEF200010A681A4083
:1018F00060F30A2242F0806040F0FD70086070479B
:1019000001680122C0F80025002280F8F4248869CB
:1019100040F000608861486D40F08052002042F045
:1019200003024A65704700002DE9F04F8BB0002894
:1019300000F085800446056890F8BD0428B90020B1
:1019400084F8BC04204600F093F8032084F8BD041A
:10195000E86BC00501D400202061206804F0ACFFD2
:1019600020680A9004F1040E04F11C0AD4E90C501A
:101970009EE80E589AE8C007CDE9085003A88DE804
:10198000005880E8C0070A9804F042FC002853D1B0
:1019900020680021002504F097FF616871B30120E1
:1019A0000023002203EBC30304EB8307D3B287F8C1
:1019B0003C200132A7F84430D3B287F83D00994269
:1019C00087F84050BD64FD647D65EBD8002000239E
:1019D000002200BF03EBC30304EB830787F87C22DC
:1019E0000132D3B287F87D02994287F88002C7F8A6
:1019F0008802C7F88C02C7F89402EBD804F1140EE1
:101A000004F1240A2268A0680A90D4E903379EE80A
:101A100040589AE80007D4E90C50CDE9085002A8D4
:101A2000CDE9007680E8005805A880E80007104658
:101A30000A9A04F001FD38B1022084F8BD040120A7
:101A40000BB0BDE8F08F00BF002084F83800012003
:101A500084F8BD04606A012802D12046FFF750FFD8
:101A6000206804F0D9FC00200BB0BDE8F08F000026
:101A7000F0B5B5B001A90446081DB821FEF793FDE5
:101A800000212068C4F20801884201D035B0F0BDC1
:101A90004FF4802001904FF48010229001A800F0B4
:101AA000B3F908B1FEF798FF00F05EF844F2D846AB
:101AB0000024C5F60206C5F6020430AD0027B06862
:101AC000294640F00100B060B06800F0010030909D
:101AD00030984FF4E8503090022031900A20349032
:101AE0002046CDE93277FFF747FC4FF400702946D6
:101AF000CDE9300720463297FFF73EFC306840F0D2
:101B000000603060306800F000600090009835B0F0
:101B1000F0BD000000000000B0B544F60C05C5F6AD
:101B2000020529684907296806D401F00701081A47
:101B300018BF0120B0BD00BF21F007010843286095
:101B4000FFF726FD044600BF55F8080C800407D4B3
:101B5000FFF71EFD001BB0F57A7FF5D90120B0BD5F
:101B60000020B0BD0000000044F60C00C5F60200E5
:101B7000016841F0807101607047000000000000C2
:101B800080B501F0A9F844F2204147F28632C5F64B
:101B90000201C0F600020968C1F30211515C01F0B4
:101BA0001F01C84080BD000080B544F2384EC5F624
:101BB000020E5EF8103C5EF8101CC1F3053C5EF8A6
:101BC0000C1CBCF1000FDEF8042015D0C1F300118D
:101BD000C2F3CC02514300EE101A03F003010229B4
:101BE000B8EE400A0ED089B95EF8381C890611D4C7
:101BF0009FED361A1CE000BF00218160C0E9001192
:101C000080BD00BF9FED301A12E000BF9FED2D1A7E
:101C10000EE000BF5EF8381C49F20002C0F2D0327C
:101C2000C1F3C10122FA01F101EE101AB8EE411A16
:101C3000DEF800109FED263A6FF35F2102EE101AD6
:101C4000DEF80010C1F34621B8EE422A00EE032A66
:101C500000EE10CAB7EE003AB8EE400A81EE000A74
:101C600032EE031A02EE101AB8EE422A20EE010AF2
:101C700032EE031A80EE011ABCEEC11A80ED001A92
:101C8000DEF80010C1F3064101EE101AB8EE411A59
:101C900031EE031A80EE011ABCEEC11A80ED011A72
:101CA000DEF80010C1F3066101EE101AB8EE411A19
:101CB00031EE031A80EE010ABCEEC00A10EE101AD3
:101CC000816080BD0024744A0024F44A0024744CCE
:101CD000000000390000000080B544F2404EC5F617
:101CE000020E5EF8183C5EF8181CC1F3055C5EF845
:101CF000141CBCF1000FDEF8042015D0C1F3002144
:101D0000C2F3CC02514300EE101A03F00301022982
:101D1000B8EE400A0ED089B95EF8401C890611D48D
:101D20009FED361A1CE000BF00218160C0E9001160
:101D300080BD00BF9FED301A12E000BF9FED2D1A4D
:101D40000EE000BF5EF8401C49F20002C0F2D03243
:101D5000C1F3C10122FA01F101EE101AB8EE411AE5
:101D6000DEF800109FED263A6FF35F2102EE101AA5
:101D7000DEF80010C1F34621B8EE422A00EE032A35
:101D800000EE10CAB7EE003AB8EE400A81EE000A43
:101D900032EE031A02EE101AB8EE422A20EE010AC1
:101DA00032EE031A80EE011ABCEEC11A80ED001A61
:101DB000DEF80010C1F3064101EE101AB8EE411A28
:101DC00031EE031A80EE011ABCEEC11A80ED011A41
:101DD000DEF80010C1F3066101EE101AB8EE411AE8
:101DE00031EE031A80EE010ABCEEC00A10EE101AA2
:101DF000816080BD0024744A0024F44A0024744C9D
:101E000000000039000000002DE9F0470446C078CA
:101E100044F22C480007C5F6020845D5606E4FEA2B
:101E2000305103290CD8DFE801F003112F3800BF2F
:101E3000D8F8001041F40031C8F800102DE000BFC0
:101E400001266078C0070AD032E000BF201D0221C1
:101E500002F052FC0646F8B16078C00728D135463A
:101E60003746607880073BD43E466078400750D4C0
:101E7000B1466078000700F167804F46E078800740
:101E800040F15F817AE000BF04F12400022102F0FA
:101E9000C7FC06460028DFD1606ED8F8241021F474
:101EA00040110843C8F8240000266078C007D6D047
:101EB000606D042800F2A6803546DFE800F003AB31
:101EC000B10A0A00D8F80000354640F40030C8F8DE
:101ED0000000002D2F4600F0AD8060788007C3D54C
:101EE000A06D4FEAB010042800F2B480DFE800F0E3
:101EF00004BAC00A0A0000BFD8F8000040F400305D
:101F0000C8F80000002D2E4600F0BC806078400725
:101F1000AED5D4F8A4004FEA7050042800F2C28075
:101F2000DFE800F004C8CE0A0A0000BFD8F80000BD
:101F300040F40030C8F80000002DA94600F0CA8027
:101F4000607800077FF599AFD4F8A8004FEA3060B9
:101F5000042800F2CF80DFE800F003D5DB09090098
:101F6000D8F8000040F40030C8F80000002D2F46DB
:101F700000F0D880E078800740F1E380A06C4FEA61
:101F8000301003281AD8DFE800F003212B0300BF2C
:101F90002E466DB36078C00600F1D8803746607871
:101FA000800600F1ED803E466078400600F1FC803E
:101FB00037466078000640F1BA8109E10125012623
:101FC0006078C00600F1C280E8E700BFD8F80000E2
:101FD00040F40030C8F80000002D2E46DAD107E0AA
:101FE000201D022102F088FB0546002D2E46D1D18E
:101FF000D8F82000A16C20F0300000250843C8F874
:1020000020009EE001250127607880073FF568AF3A
:102010002AE700BF201D002102F06EFB05E000BF93
:1020200004F12400002102F0FBFB0546002D2F46A1
:102030007FF453AFD8F82400616D20F0070000252D
:102040000843C8F824003746607880077FF50CAF56
:1020500046E700BF01250126607840073FF559AFEC
:1020600006E700BF201D002102F046FB05E000BF8F
:1020700004F12400002102F0D3FB0546002D2E467A
:102080007FF444AFD8F82400A16D20F4E07000255F
:102090000843C8F824003E46607840077FF5E8AE64
:1020A00037E700BF01254FF00109607800073FF5D1
:1020B0004BAFE2E6201D002102F01EFB05E000BF51
:1020C00004F12400002102F0ABFB0546002DA946D7
:1020D0007FF436AFD8F82C00D4F8A41020F46000B8
:1020E00000250843C8F82C00B146607800077FF54A
:1020F000C4AE29E701250127E07880073FF53EAF10
:102100001FE000BF201D002102F0F6FA05E000BF2D
:1021100004F12400002102F083FB0546002D2F4628
:102120007FF428AFD8F82C00D4F8A81020F0E06095
:1021300000250843C8F82C004F46E07880073FF59B
:102140001DAF3E466078C0067FF528AFE06D4FEAD0
:102150003030042800F26C80DFE800F00472780A66
:102160000A0000BFD8F8000040F40030C8F80000B2
:10217000002D2F4600F07480607880067FF513AF45
:10218000206E4FEA3040052800F27A80DFE800F048
:1021900004808A04040400BF002D2E4600F08C80C9
:1021A000607840067FF504AFD4F8AC004FEA307099
:1021B000052800F29180DFE800F00397A1030303F4
:1021C000002D2F4600F0A4806078000640F1AF801B
:1021D000E06E58B1B0F1005F10D0B0F1805F1FD158
:1021E000D8F8000040F40030C8F800002E466DB169
:1021F000E078C00700F0CF809DE000BF201D0121E6
:1022000002F07AFA0546002D2E46F1D1D8F82400C6
:10221000E16E20F0405000250843C8F8240086E015
:1022200001250126E078C00740F08580B3E000BFBB
:1022300001250127607880063FF5A2AFB3E600BF15
:10224000201D002102F058FA05E000BF04F124002F
:10225000002102F0E5FA0546002D2F467FF48CAFF1
:10226000D8F82400E16D20F4E04000250843C8F8C8
:1022700024003746607880067FF595AE80E700BF82
:1022800001250126607840063FF58EAF90E600BF3D
:10229000201D012102F030FA0546002D2E467FF464
:1022A0007FAF09E004F12400012102F0B9FA0546EC
:1022B000002D2E467FF474AFD8F82400216E20F450
:1022C000E02000250843C8F824003E466078400618
:1022D0007FF56EAE68E700BF012501276078000634
:1022E0003FF576AF23E000BF201D012102F004FA84
:1022F0000546002D2F467FF467AF09E004F1240066
:10230000012102F08DFA0546002D2F467FF45CAFC7
:10231000D8F82C00D4F8AC1020F0E0400025084399
:10232000C8F82C003746607800063FF551AF3E46AE
:10233000E078C0072FD0606C032809D8DFE800F0F0
:1023400002101A02A946EDB1A07840062AD426E070
:1023500001254FF00109A078400620D522E000BFFA
:10236000D8F8000040F40030C8F80000002DA9465D
:10237000EAD107E0201D022102F0BEF90546002D3A
:10238000A946E1D1D8F82000616C20F003000025B7
:102390000843C8F82000B146A078400602D44F4652
:1023A00019E000BFD8F8D40340F48070C8F8D40313
:1023B000FFF7EEF8064600BFD8F8D403C00507D4EF
:1023C000FFF7E6F8801B6428F6D90325032702E00F
:1023D000002D2F4664D02078C00700F0B680A06F93
:1023E0004FEAF000052800F28D80DFE800F003914D
:1023F0009B030303002D2E4600F09E80207880076B
:1024000000F1A88037462078400700F1B7803E46AB
:102410002078800600F1C88037462078400600F119
:10242000DB803E462078000600F1EE8037462068CB
:10243000010740F10181D4F88000B0F5805F09D137
:1024400004F12400022102F0EBF9002818BF012753
:10245000D4F88000D8F8281021F440510843C8F877
:1024600028002068C10640F1EA80D4F89400B0F555
:10247000807F09D104F12400022102F0D1F9002863
:1024800018BF0127D4F89400D8F82C1021F440711B
:102490000843C8F82C002068000340F1F780D0E022
:1024A000D8F84410D4F8B000414011F4407F11D066
:1024B000D8F84410D8F8442042F48032C8F84420B8
:1024C000D8F8442021F4407122F48032C8F8442026
:1024D000C8F84410B0F5807F40F0AC82FFF758F8A0
:1024E000064641F2883A0325032700BFD8F8440086
:1024F000800700F19D82FFF74BF8801B5045F5D90E
:1025000069E700BF012501262078800722D479E7FA
:10251000201D012102F0F0F80546002D2E467FF423
:102520006DAF09E004F12400012102F079F90546BC
:10253000002D2E467FF462AFD8F82800A16F20F05E
:10254000380000250843C8F828003E462078800758
:102550007FF558AF606F052800F28E81DFE810F03C
:10256000060094019E01060006000600002D2F467D
:1025700000F09E81207840077FF549AFD4F89000A5
:10258000052800F2A581DFE810F00700AB01B501D6
:1025900007000700070000BF002D2E4600F0B481A1
:1025A000207880067FF538AFD4F88C004FEA307081
:1025B000052800F2B981DFE810F00700BF01C9016A
:1025C00007000700070000BF002D2F4600F0C8815C
:1025D000207840067FF525AFD4F898004FEAB02068
:1025E000052800F2CD81DFE810F00700D301DD01FE
:1025F00007000700070000BF002D2E4600F0DC8119
:10260000207800067FF512AFD4F89C004FEA7030B6
:10261000052800F2E181DFE810F00700E701F10191
:1026200007000700070000BF002D2F4600F0F081D3
:10263000206801073FF5FFAEC1063FF516AF000366
:1026400024D5D4F8A000B0F5003F0FD0B0F5803FFE
:1026500006D0B8BB201D002102F04EF805E000BFF7
:1026600004F12400022102F0DBF805462E461DB1DC
:10267000A07840073FD50DE0D8F82C00D4F8A01082
:1026800020F4403000250843C8F82C003E46A078CE
:10269000400730D5D4F88400B0F5401F0BD0B0F51A
:1026A000001F15D0B0F5801F70D1D8F8000040F49D
:1026B0000030C8F800002F469DB1A078C0071ED199
:1026C00069E000BF01260125A0784007E2D412E0AE
:1026D00004F12400012102F0A3F80546002D2F4645
:1026E000EBD1D8F82800D4F8841020F4401000254D
:1026F0000843C8F828003746A078C0074BD0E06CE4
:10270000B0F5803F2AD0D8BBD8F8000040F40030A4
:10271000C8F800002E464DB3206881003FD48103E5
:1027200048D4C1025DD4C10065D481026FD4410098
:1027300078D4B0F1FF3F40F38680000208D5D8F886
:102740002800D4F8881020F440000843C8F8280076
:10275000002E18BF01263046BDE8F087201D02215B
:1027600001F0CAFF0546002D2E46D5D1D8F820002D
:10277000E16C20F4803000250843C8F820000AE00E
:102780000126012520688100C9D508E0012701251F
:10279000A078C007B3D13E4620688100BFD504F1C0
:1027A0002400022102F03CF8002818BF012620680E
:1027B0008103B6D5E16F6FF0010202EB3122022AEC
:1027C0000AD34FEA31223AB1012A07D1D8F80020C2
:1027D00042F40032C8F80020002D41D00126C10289
:1027E000A1D5D8F82410226F21F000411143C8F878
:1027F0002410C10099D558F81C1CD4F8B42021F439
:102800008041114348F81C1C81027FF590AFD8F835
:102810002410A26E21F080711143C8F824104100E9
:102820007FF587AF58F81C1C21F4004148F81C1CA8
:10283000D4F8B81058F81C2C114348F81C1CB0F1FF
:10284000FF3F3FF77AAFD8F82010226D21F04051BA
:102850001143C8F8201000027FF57AAF6FE700BF80
:10286000D8F8282022F440721143C8F82810C10279
:102870007FF559AFB5E700BF012501272078400754
:102880003FF57CAEC3E500BF201D012101F034FF00
:102890000546002D2F467FF46DAE09E004F12400BB
:1028A000012101F0BDFF0546002D2F467FF462AEE9
:1028B000D8F82800616F20F0070000250843C8F809
:1028C00028003746207840077FF5A1AD56E600BFC7
:1028D00001260125207880063FF566AE9CE500BF05
:1028E000201D012101F008FF0546002D2E467FF432
:1028F00057AE09E004F12400012101F091FF0546E3
:10290000002D2E467FF44CAED8F82C00D4F8901051
:1029100020F0070000250843C8F82C003E46207828
:1029200080067FF579AD3FE6012701252078400636
:102930003FF552AE75E500BF201D002101F0DCFE21
:102940000546002D2F467FF443AE09E004F1240034
:10295000022101F065FF0546002D2F467FF438AEB9
:10296000D8F82800D4F88C1020F0E0400025084367
:10297000C8F828003746207840067FF552AD2BE690
:1029800001260125207800063FF53EAE4EE500BF4A
:10299000201D002101F0B0FE0546002D2E467FF4DB
:1029A0002FAE09E004F12400022101F039FF0546B1
:1029B000002D2E467FF424AED8F82C00D4F89810C1
:1029C00020F4E05000250843C8F82C003E4620784B
:1029D00000067FF52BAD17E60127012520680107CA
:1029E0007FF52AAE27E500BF201D002101F084FEFF
:1029F0000546002D2F467FF41BAE09E004F12400AC
:102A0000022101F00DFF0546002D2F467FF410AE88
:102A1000D8F82C00D4F89C1020F46040002508431E
:102A2000C8F82C003746206801077FF505AE02E59F
:102A3000D4F8B0004FF6CF7358F81C2CC0F2FF0347
:102A400000F4407122F47C5203EA10136FF31F303C
:102A5000B1F5407F08BF1A43002548F81C2CD8F870
:102A600044100843C8F84400FFF799BC0000000078
:102A70002DE9F04381B0002800F02A8142F20008DD
:102A80000446C5F200288946D8F8000000F00F007F
:102A900088420ED2D8F8000020F00F0040EA09006A
:102AA000C8F80000D8F8000000F00F00484540F0DA
:102AB0000F81206844F218474107C5F602070AD57E
:102AC00021693A6802F07002914204D93A6822F012
:102AD00070021143396001070AD561697A6802F012
:102AE0007002914204D97A6822F070021143796031
:102AF000C1060AD5A1697A6802F4E062914204D95C
:102B00007A6822F4E0621143796081060AD5E169AE
:102B1000BA6802F07002914204D9BA6822F07002D9
:102B20001143B96010F002010AD0E2683B6803F07B
:102B30000F039A4204D93B6823F00F031A433A600B
:102B4000C20746D0386820F47061D4E90102012838
:102B500041EA0201396009D003280DD0022811D1C1
:102B600057F8181C890340F1B38010E057F8181C7F
:102B7000C90540F1AD800AE057F8181C890140F101
:102B8000A78004E057F8181C490740F1A18057F8C6
:102B9000081C21F00701084347F8080CFEF7F8FC71
:102BA000064641F2883500BF57F8080C616800F00E
:102BB0003800B0EBC10F09D0FEF7EAFC801BA84239
:102BC000F2D9032001B0BDE8F08300BF206800F017
:102BD000020151B1E1683A6802F00F02914204D259
:102BE0003A6822F00F0211433960D8F8001001F062
:102BF0000F0149450DD9D8F8001021F00F0141EA25
:102C00000901C8F80010D8F8001001F00F0149457B
:102C10005ED141070AD521693A6802F070029142FB
:102C200004D23A6822F070021143396001070AD5D4
:102C300061697A6802F07002914204D27A6822F0E7
:102C4000700211437960C1060AD5A1697A6802F45D
:102C5000E062914204D27A6822F4E0621143796022
:102C600080060AD5E069B96801F07001884204D293
:102C7000B96821F070010843B86000F0B5F8396810
:102C800047F286333A68C0F60003C1F3032102F02D
:102C90000F02595C9A5C01F01F0120FA01F102F069
:102CA0001F0040F20C0221FA00F0C2F20042106054
:102CB00040F2040040F20802C2F20040C2F20042B8
:102CC0000068116001B0BDE8F043FEF791BD00BFA0
:102CD000012001B0BDE8F08380B500F085F844F232
:102CE000184147F28633C5F60201C0F600030A68B0
:102CF000096801F00F01C2F30322595C9A5C02F0EB
:102D00001F0220FA02F201F01F0040F20C0122FA29
:102D100000F0C2F20041086040F20801C2F2004136
:102D20000A6080BD0000000080B500F05DF844F24C
:102D3000184C47F28631C5F6020CC0F60001DCF8EB
:102D40000020DCF8003003F00F03C2F30322CB5C59
:102D50008A5C02F01F02D04003F01F0240F20C0315
:102D600020FA02F2C2F200431A6040F20803C2F2F3
:102D700000431860DCF80400C0F30210085C00F0A7
:102D80001F0022FA00F080BD80B500F02DF844F25B
:102D9000184C47F28631C5F6020CC0F60001DCF88B
:102DA0000020DCF8003003F00F03C2F30322CB5CF9
:102DB0008A5C02F01F02D04003F01F0240F20C03B5
:102DC00020FA02F2C2F200431A6040F20803C2F293
:102DD00000431860DCF80400C0F30220085C00F037
:102DE0001F0022FA00F080BD44F20041C5F6020146
:102DF0000869C0F3C200032810D002282CD088BB79
:102E00000868800649F20000C0F2D03058BF704711
:102E10000968C1F3C101C840704700BF8A6A886A67
:102E2000C0F3051CC86ABCF1000F4B6B20D0C3F384
:102E3000CC0300F00100584302F00302022A00EE26
:102E4000100AB8EE400A15D0C2B90868800619D435
:102E50009FED281A23E000BF41F20020C0F27A0063
:102E6000704700BF40F60010C0F23D00704700BF41
:102E7000002070479FED1E1A11E000BF9FED1B1A46
:102E80000DE000BF086849F20002C0F2D032C0F382
:102E9000C10022FA00F001EE100AB8EE411A086BE8
:102EA0009FED153A6FF35F2002EE100A086BC0F336
:102EB0004620B8EE422A013000EE032A00EE10CA86
:102EC000B7EE003AB8EE400A81EE000A32EE031A7D
:102ED00020EE010A01EE100AB8EE411A80EE010A56
:102EE000BCEEC00A10EE100A704700BF0024744AFE
:102EF0000024F44A0024744C000000390000000053
:102F0000F0B581B0002800F05B810446007844F2FF
:102F10000046C007C5F6020612D0306900F038013D
:102F2000B06A102905D018292ED100F0030002281C
:102F30002AD13068800303D56068002800F0408102
:102F40002078800740F1A980306910F03801B06A1C
:102F50002CD0182908BF5FEA807027D0E06831685C
:102F600000284FD021F0190108433060FEF710FB14
:102F7000054600BF3068400734D4FEF709FB401B0C
:102F80000228F7D95BE100BF606800284CD0B0F59B
:102F9000A02F61D0B0F5803F62D0306820F480303F
:102FA0003060306820F480205DE000BF306840076A
:102FB000E06802D5002800F00381316821F0190192
:102FC00008433060FEF7E4FA054600BF306840076A
:102FD00008D4FEF7DDFA401B02284FF00300F5D9B4
:102FE00019E200BFFEF7CCFA41F20301884249D84A
:102FF00020697168402821F47C314BD141F40030C4
:103000004AE000BF21F001003060FEF7C1FA05463A
:103010003068400741D5FEF7BBFA401B02284FF04D
:103020000300F5D9F7E100BF306820F4803030604C
:10303000306820F480203060FEF7AAFA054600BF11
:10304000306880037FF57CAFFEF7A2FA401B64284E
:103050004FF00300F4D9DEE1306840F480203060A6
:10306000306840F480303060FEF792FA054600BFC9
:10307000306880033FF564AFFEF78AFA401B64288E
:10308000F6D9DCE07068216920F0FE4040EA01607A
:1030900002E000BF41EA003070602078C00654D5DD
:1030A000306900F03801B06A082905D0182919D113
:1030B00000F00300012815D13068C00503D5E06990
:1030C000802840F07D80FEF75BFA41F203018842E0
:1030D0001ED8206A7168202821F0F84132D141F0D1
:1030E000804031E0E0690028306819D040F080006D
:1030F0003060FEF74DFA05463068C005E3D4FEF7B0
:1031000047FA401B02284FF00300F5D983E100BFC6
:10311000F068216A20F07C5040EA0160F06014E021
:1031200020F080003060FEF733FA05463068C005B5
:103130000BD5FEF72DFA401B02284FF00300F5D9FE
:1031400069E100BF41EA80607060207800073BD4ED
:10315000207880064CD4207840075DD4656A65B33A
:10316000306900F03800182840F0A080012DB16AC5
:10317000306B25D001F00302A36A9A4220D1C1F33B
:103180000511E26A91421BD10146226B6FF35F2168
:10319000013A914214D1C0F34622616B01398A424F
:1031A0000ED1C0F30642A16B01398A4208D1C0F3A7
:1031B0000660E16B0139884202D1002001B0F0BD08
:1031C000012001B0F0BD00BF60690028706F39D0E8
:1031D00040F001007067FEF7DBF90546706F80076D
:1031E000B6D4FEF7D5F9401B0228F7D927E000BF77
:1031F000A0690028306847D040F480503060FEF766
:10320000C7F9054630688004A5D4FEF7C1F9401B14
:103210000228F7D913E000BFD6F8000440F480700C
:10322000C6F80004FEF7B4F9054600BFD6F800045E
:10323000C00519D4FEF7ACF9401B6428F6D9032069
:1032400001B0F0BD20F001007067FEF7A1F905465E
:10325000706F80077FF57CAFFEF79AF9401B02285C
:103260004FF00300F4D9D6E0A068002840D005282C
:1032700058D001285AD0306F20F001003067306FED
:1032800020F0040055E000BF20F480503060FEF7CD
:103290007FF90546306880047FF55DAFFEF778F969
:1032A000401B02284FF00300F4D9B4E0306820F04E
:1032B00080703060FEF76CF9022D05460CD100BF1E
:1032C0003068800148D5FEF763F9401B02284FF0B3
:1032D0000300F5D99FE000BF306880017FF56DAF36
:1032E000FEF756F9401B02284FF00300F4D992E094
:1032F000306F20F001003067306F20F0040030673D
:10330000FEF746F9054641F28837306F80077FF5B2
:1033100025AFFEF73DF9401BB8424FF00300F4D94A
:1033200079E000BF306F40F004003067306F40F04C
:1033300001003067FEF72CF9054641F2883700BFDF
:10334000306F80073FF50AAFFEF722F9401BB84205
:103350004FF00300F4D95EE004F12807B06A40F2B0
:10336000F33188438ECF0843591E40EA02104FF4D0
:103370007E426FF35F21B06202EB47204FF4FE0202
:1033800080B2E36B0844A16B02EB01414FF0FE42B7
:1033900001F4FE0102EB0362084402F0FE4108441E
:1033A0003063F06A4FF6F87120F00100F062706B44
:1033B000A26C884340EAC2007063F06A216C20F07E
:1033C0000C000843F062F06A616C20F002000843D0
:1033D000F062F06A40F48030F062F06A40F400304D
:1033E000F062F06A40F48020F062F06A40F0010080
:1033F000F062306840F080703060FEF7C9F8044633
:10340000306880013FF5D9AEFEF7C2F8001B0228F4
:103410004FF00300F4D901B0F0BD0000000000003F
:1034200090F82020012A4FF0020219D080F82120C4
:10343000CA230268536253235362936823F4002320
:103440009360936819439160916841F40001916021
:10345000FF2151620022012180F8211080F82020F4
:103460001046704700000000B0B50068002A4068B0
:103470004FEA104300F03F0CC0F3042ECB70C0F3B2
:10348000423281F801E081F802C00A7002D00020C7
:10349000B0BD00BFDAB24FEA1E14120903F00F03E9
:1034A000050A00F00F0002EB820205F00F0503EBA6
:1034B0004202CA7044EA84034FEA1C1405EB43033A
:1034C0004B7044EA840200EB420088700020B0BDDB
:1034D000B0B50068002A836A4B6003696FF3DF337D
:1034E0008B60006800F07F0C81F802C0C0F30543D8
:1034F0000B70C0F3062E81F801E0C0F38052CA7051
:1035000002D00020B0BD00BF1B09020C43EA8303B8
:1035100002F00F024FEA1E1402EB43020A7004EBA2
:1035200084034FEA1C14050A00F00F0004EB840228
:1035300005F00F0505EB43034B7000EB420088706C
:103540000020B0BD00000000B0B5002842D0044605
:1035500090F8210028B9002084F82000204600F0CF
:1035600057F8022084F821002168CA2048625320BD
:103570004862C868400613D44FF0FF30C860FEF7B9
:1035800007F82168CA6852060AD40546FEF700F813
:10359000401BB0F57A7F31D82168C8684006F5D560
:1035A0004FF6BF728868CFF68F72251D1040886075
:1035B0002DCD2843A56928438D682843886043EAB8
:1035C00002400861204601F0BFF9216820B1FF22C6
:1035D0004A62B0BD0120B0BDC86C20F00300C864D1
:1035E0006069E2691043CA6C1043C864FF204862F6
:1035F000012084F821000020B0BD00BF032084F822
:1036000021002168CA68FF224A62B0BD00000000A4
:10361000B0B5B4B00446684644F200050430B821A1
:10362000C5F60005FCF7BFFF2068A84202D034B001
:10363000B0BD00BF4FF4800000904FF400702C909C
:103640006846FEF7E1FB08B1FDF7C6F944F2E04039
:10365000C5F6020050F8701C41F4004140F8701C9F
:10366000016841F00201016000682FA900F002002A
:103670002F902F9804202F90022030900020CDE929
:103680003100339005F5E230FDF776FE34B0B0BD81
:103690002DE9F041044690F8200001284FF0020087
:1036A00008BFBDE8F0814FF0010384F8203084F8B2
:1036B00021003AB14878CA788E78000240EA024880
:1036C00045E000BF4878C20603D500F0EF000A309D
:1036D0004870CA784FF0CD0CA0F10A054FF0010EEA
:1036E000A2F10A03092ADFB207FB0CF74FEAD7263B
:1036F00006EB8606A3EB4608EEB206FB0CF30EEBD8
:10370000D72688BF48EA0612DF0A8E780EEBD3234D
:103710000928D2B207EB8707A5EB470588BF45EA22
:103720000310A6F10A03092EDDB2C0B205FB0CF7A7
:103730004FEA00204FEAD72540EA024805EB850012
:103740000EEBD722A3EB400088BF40EA02162268A6
:103750000F78CA20506253205062D068400613D4BC
:103760004FF0FF30D060FDF713FF2268D1684906A3
:103770000AD40546FDF70CFF401BB0F57A7F23D82D
:103780002268D0684006F5D5F0B2790340EA080017
:1037900020F0C00008435060204601F0D5F82168B1
:1037A0004FF0FF024A6228B1002184F82010BDE8E2
:1037B000F08100BF012084F821000020002184F85E
:1037C0002010BDE8F08100BF032084F821002168AB
:1037D000CA68FF224A62002184F82010BDE8F08107
:1037E0002DE9F047044690F8200001284FF0020030
:1037F00008BFBDE8F0870D46012184F82010164669
:1038000084F82100CA202168486253204862C868B1
:10381000400614D44FF0FF30C860FDF7B9FE2168B0
:10382000CA6852060BD40746FDF7B2FEC01BB0F5BE
:103830007A7F00F28D802168C8684006F4D58868D8
:1038400000F0400036B158B94FF0000E85F803E0A3
:1038500009E000BF70B94FF0000E85F803E00CE0FE
:10386000E8784FEA805E28786B78AA781B0243EAF2
:10387000004341E0E8784FEA805E2B784FF0CD0CB2
:1038800068784FF00109A3F10A02092BD7B207FBB0
:103890000CFA4FEADA2609EBDA2A06EB8606A2EBE7
:1038A0004608A0F10A06F2B202FB0CF788BF48EA0C
:1038B0000A13FA0A0928DBB209EBD72702EB8208C0
:1038C000AA78A6EB480688BF46EA0710A2F10A06C6
:1038D000092AF7B2C0B207FB0CF74FEA00204FEA03
:1038E000D72C40EA03430CEB8C0009EBD727A6EB5F
:1038F000400088BF40EA0712D0B247F67F721843F3
:10390000C0F27F0240EA0E0010400860886820F490
:1039100080208860D5E9030210438A6810438860DC
:10392000204601F011F821684FF0FF024A6228B1E9
:10393000002184F82010BDE8F08700BF012084F842
:1039400021000020002184F82010BDE8F08700BF8E
:10395000032084F821002168CA68FF224A620021FE
:1039600084F82010BDE8F087411E0020B0EB116FF5
:1039700002D00120704700BF4EF21002F023CEF2B9
:10398000000251604EF62351CEF200010B70072168
:10399000906011607047000090F88010012901D1FB
:1039A000022070472421C0F884100268136811684F
:1039B00023F0005321F001011160002141661360E2
:1039C0002022C0F8842080F880100846704700004C
:1039D0007047000000000000704700000000000079
:1039E00070B590F88020012A02D1022070BD00BF7E
:1039F0002422C0F884200268D0F864E0BEF1000FF1
:103A0000D2F800C0136823F001031360936823F019
:103A1000606341EA030191601AD0916847F2AE3EBB
:103A20009368C0F6000E5B0F47F2B635C1F34266ED
:103A3000C0F600051EF80340E95C2301B3FBF1F179
:103A40001EF80630AE5D1B01B3FBF6F302E000BFCB
:103A500001210123A0F86A102021A0F86830C2F8E3
:103A600000C0C0F88410002180F88010084670BDA6
:103A700070B590F88020012A02D1022070BD00BFED
:103A80002422C0F884200268D0F864E0BEF1000F60
:103A9000D2F800C0136823F001031360936823F089
:103AA000604341EA030191601AD0916847F2AE3E4B
:103AB0009368C0F6000E5B0F47F2B635C1F342665D
:103AC000C0F600051EF80340E95C2301B3FBF1F1E9
:103AD0001EF80630AE5D1B01B3FBF6F302E000BF3B
:103AE00001210123A0F86A102021A0F86830C2F853
:103AF00000C0C0F88410002180F88010084670BD16
:103B00007047000000000000704700000000000047
:103B1000704700000000000070B50446006840F6E1
:103B20002F01C26911402029016886680CD101F07B
:103B3000200306F080555B1918D0216F002957D05B
:103B40002046BDE87040084740F60F031A420DD0EA
:103B5000012340F22015C1F20003C0F2004506EA3D
:103B6000030C01EA050313EB0C0343D1E36E012BB5
:103B700005D112F0100318BF11F0100326D1D302A3
:103B80000AD516F4800307D04FF480110162204655
:103B9000BDE87040FFF7B8BF130606D501F08003FB
:103BA00006F400069B1940F0D780530602D511F0A9
:103BB00040033CD1100240F1D58011F0804000F06C
:103BC000D1802046BDE87040FFF79ABF1021016206
:103BD0008168490618D4B4F85C10B4F85E20B4F8D3
:103BE0005E30002B1CBF891A5FEA014240F04D8114
:103BF00070BD00BFD30718BF11F4807348D193077D
:103C000006F0010E50D45AE0E26F11684B6899B289
:103C10000029EDD0B4F85CC06145E9D2A4F85E306B
:103C2000D169B1F5807F00F09A82F0E1206850E818
:103C3000000F216820F0400041E80002EAB120684E
:103C400050E8000F216820F0400041E80002A2B1D6
:103C5000206850E8000F216820F0400041E8000291
:103C6000002A1FBF206850E8000F216820F04000A4
:103C70001CBF41E80002002AD8D12020C4F88400EB
:103C8000002060672046BDE8704000F0C5BC00BF62
:103C900001230362D4F88C3043F00103C4F88C3064
:103CA000930706F0010E0AD5BEF1000F07D00223DC
:103CB0000362D4F88C3043F00403C4F88C3053070B
:103CC0000AD5BEF1000F07D004230362D4F88C306C
:103CD00043F00203C4F88C3013070CD501F0200325
:103CE00053EA0C0307D008230362D4F88C3043F066
:103CF0000803C4F88C3013050BD511F0806308D08D
:103D00004FF400630362D4F88C3043F02003C4F80E
:103D10008C30D4F88C30002B3FF46AAF12F02002C4
:103D20000AD001F0200106F08052891804D0216FDA
:103D300011B1204688472068D4F88C10826802F0C0
:103D4000400201F02801891819D12046FFF7E0FE52
:103D50000020C4F88C0070BD616F00297FF4F0AEC4
:103D600046E700BFD0017FF543AFB1F1FF3FC8BFC9
:103D700070BD2046BDE87040FFF72EBE206850E8B9
:103D8000000F216820F4907041E80002EAB1206839
:103D900050E8000F216820F4907041E80002A2B1C1
:103DA000206850E8000F216820F4907041E800027C
:103DB000002A1FBF206850E8000F216820F490708F
:103DC0001CBF41E80002002AD8D14FF6FE70CEF6A3
:103DD000FF70216851E8021F2268014042E8021387
:103DE000DBB1216851E8021F2268014042E802135A
:103DF000002B1FBF216851E8021F226801401CBF31
:103E000042E80213002B08D0216851E8021F226803
:103E1000014042E80213002BDBD1E06E012827D1DC
:103E2000206850E8000F216820F0100041E80002EF
:103E3000F2B1206850E8000F216820F0100041E83E
:103E40000002002A1FBF206850E8000F216820F000
:103E500010001CBF41E80002002A09D0206850E889
:103E6000000F216820F0100041E80002002AD7D19D
:103E70002020C4F888000021E1662068216781685D
:103E8000490640F1BD8084E0206850E8000F2268B8
:103E900020F4907042E80003EBB1206850E8000F76
:103EA000226820F4907042E80003A3B1206850E833
:103EB000000F226820F4907042E80003002B1FBF1F
:103EC000206850E8000F226820F490701CBF42E880
:103ED0000003002BD8D14FF6FE70CEF6FF7022689B
:103EE00052E8022F2368024043E80226DEB122682E
:103EF00052E8022F2368024043E80226002E1FBF2B
:103F0000226852E8022F236802401CBF43E80226C1
:103F1000002E08D0226852E8022F2368024043E8AE
:103F20000226002EDBD12020C4F888000020E066A5
:103F30002067206850E8000F226820F0100042E857
:103F40000003F3B1206850E8000F226820F0100051
:103F500042E80003002B1FBF206850E8000F2268D2
:103F600020F010001CBF42E80003002B09D020689D
:103F700050E8000F226820F0100042E80003002BF8
:103F8000D7D189B22046BDE87040FFF721BD00BF00
:103F9000206850E8020F216820F0400041E802024A
:103FA000EAB1206850E8020F216820F0400041E8A3
:103FB0000202A2B1206850E8020F216820F0400000
:103FC00041E80202002A1FBF206850E8020F216862
:103FD00020F040001CBF41E80202002AD8D1E06F67
:103FE00070B144F6A141C0F600010165FDF70CF87F
:103FF00000283FF4FDADE06F016DBDE8704008475B
:104000002046BDE87040FFF783BD00BF206850E840
:10401000000F216820F4807041E80002EAB12068B6
:1040200050E8000F216820F4807041E80002A2B13E
:10403000206850E8000F216820F4807041E80002F9
:10404000002A1FBF206850E8000F216820F480700C
:104050001CBF41E80002002AD8D1206850E8020FB6
:10406000216820F0010041E80202F2B1206850E826
:10407000020F216820F0010041E80202002A1FBF60
:10408000206850E8020F216820F001001CBF41E8C1
:104090000202002A09D0206850E8020F216820F0AF
:1040A000010041E80202002AD7D1206850E8020F3F
:1040B000216820F0400041E80202F2B1206850E897
:1040C000020F216820F0400041E80202002A1FBFD1
:1040D000206850E8020F216820F040001CBF41E832
:1040E0000202002A09D0206850E8020F216820F05F
:1040F000400041E80202002AD7D12020C4F88800FD
:104100000020E066206850E8000F216820F01000D1
:1041100041E80002F2B1206850E8000F216820F069
:10412000100041E80002002A1FBF206850E8000F7D
:10413000216820F010001CBF41E80002002A09D0CD
:10414000206850E8000F216820F0100041E80002CC
:10415000002AD7D1E06FFCF7BFFCB4F85CC0B4F81C
:104160005E00ACEB000081B22046BDE87040FFF776
:104170002FBC000000000000B0B582B0B0B1044612
:10418000D0F8840028B9002084F88000204600F090
:1041900057F82420C4F884002068016821F0010148
:1041A0000160204601F0B0F9012803D1012002B0DE
:1041B000B0BD00BFA06A10B1204600F001FD20682C
:1041C000416821F490414160816821F02A018160B9
:1041D000016841F0010101600020C4F88C00FDF786
:1041E000D7F9216805460A6812070BD54FF400116C
:1041F00000226FF07E40009020462B4601F0ECFE3E
:1042000070B92168086840070ED54FF4800100227C
:104210006FF07E40009020462B4601F0DDFE18B185
:10422000032002B0B0BD00BF2020C4F88400C4F851
:1042300088000020E06684F8800002B0B0BD000075
:104240002DE9F041B4B069460446081DB821FCF7D9
:10425000AAF944F600012068C4F20001884203D0A4
:1042600034B0BDE8F08100BF68464FF00208CDF8D9
:104270000080FDF7C9FD08B1FCF7AEFB44F2E04059
:1042800040F20044C5F60200C5F602042FAD002737
:104290008168072641F480218160816801F48021D2
:1042A0002F912F99016841F002010160016801F02E
:1042B00002012F912F99016841F008010160006807
:1042C000294600F008002F902F984FF48060CDE928
:1042D0002F0820463396CDE93177FDF74DF84FF49E
:1042E00000702946CDE92F0804F500603396CDE92A
:1042F0003177FDF741F8272000210022FDF7C0FAB1
:104300002720FDF7ADFA34B0BDE8F08100000000D1
:104310002DE9F04381B00446D0F8880020280BD165
:104320000E4600294FF001006AD01746002A67D0D8
:1043300094F88000012803D1022001B0BDE8F08389
:104340001D46012084F880000020C4F88C00222142
:10435000C4F88810E066FDF71BF9A4F85C7080468D
:10436000A4F85E70A168B9B1B1F1805F18D0B1F561
:10437000805F19D12069FF270146002818BF314608
:1043800008BF40F2FF17002818BF0026A4F860708D
:10439000B1460E460FE000BF206938B9FF2706E09E
:1043A000206918B13F2702E0002700E07F274FF087
:1043B0000009A4F86070002084F8800009E000BFC4
:1043C000384029F8020B0026B4F85E000138A4F842
:1043D0005E00B4F85E0078B12021002220464346FA
:1043E000009501F0F9FD78B92068002E406AE7D009
:1043F000384006F8010BE7E72020C4F888000020C9
:1044000001B0BDE8F08300BF032001B0BDE8F08338
:1044100080B5D0F88830202B0AD10123002918BF9D
:10442000002A01D1184680BD90F88030012B01D1BF
:10443000022080BD012380F880300023C36640F64F
:104440000043D0F800C0C5F600039C4537D0DCF827
:1044500004301B0233D55CE800CF02E0036853E868
:1044600000CFD0F800E04CF080634EE8003CBCF197
:10447000000F24D0036853E800CFD0F800E04CF0E0
:1044800080634EE8003CBCF1000F18D0036853E88D
:1044900000CFD0F800E04CF080634EE8003CBCF167
:1044A000000F1FBF036853E800CFD0F800E04CF0C6
:1044B00080631CBF4EE8003CBCF1000FCED101F080
:1044C0007FFA0023184680BD40F270000121C2F23D
:1044D0000040017070470000D0F88430202B0BD1D1
:1044E0000123002918BF002A02D11846704700BFD7
:1044F00090F88030012B01D1022070470165002126
:10450000A0F85420A0F85620C0F88C102121C0F843
:104510008410416EB1F1005F816809D1B1F5805F0F
:1045200001D1016971B145F6F161C0F600010DE0FC
:10453000B1F5805F01D10169C1B345F62161C0F6D3
:10454000000137E045F63151C0F600014167002116
:1045500080F88010016851E8021F026841F40001F0
:1045600042E80213002B55D0016851E8021F02688F
:1045700041F4000142E80213002B1FBF016851E81B
:10458000021F026841F400011CBF42E80213002B25
:1045900040D0016851E8021F026841F4000142E87E
:1045A0000213002B4FF00003D4D19EE745F6614182
:1045B000C0F600014167002180F88010016851E8D1
:1045C000001F026841F0800142E8001313B3016844
:1045D00051E8001F026841F0800142E80013002BFF
:1045E0001FBF016851E8001F026841F080011CBF35
:1045F00042E80013002B0DD0016851E8001F02684B
:1046000041F0800142E80013002B4FF00003D5D1A8
:104610006BE700BF002070477047000000000000FB
:10462000FEE700000000000080B540F27B0E8446EB
:10463000C0F2370EC0F800E08180C2800020CCF8C4
:10464000083080BD0000000040F27B0C0346C0F241
:10465000350CC0E900C100209A60704700000000DE
:1046600080B540F27B0E8446C0F2380EC0F800E000
:104670008180C2800020CCF8083080BD000000009E
:1046800080B540F27B0E8446C0F23A0EC0E900E1EC
:10469000C0E9022300200299CCF8101080BD000070
:1046A00080B540F27B0E8446C0F23C0EC0E900E1CA
:1046B000C0E9022300200299CCF8101080BD000050
:1046C00080B540F27B0E8446C0F23B0EC0E900E1AB
:1046D000C0E9022300200299CCF8101080BD000030
:1046E000FEE7000000000000FEE700000000000000
:1046F0007047000000000000F0B581B044F22C4784
:10470000C5F6020757F8042C02F00302032A03D16E
:10471000012001B0F0BD00BF054657F82C0C0C4637
:1047200020F0806047F82C0CFCF732FF064600BFF3
:1047300057F82C0C000105D5FCF72AFF801B022836
:10474000F6D964E057F8040CEE6895E80E0020F402
:104750007C30012C40EA0130A2F101016FF35F21AE
:104760004FF47E4202EB432247F8040C92B24FF022
:10477000FE4302EB01004FF4FE012A6901EB064102
:1047800001F4FE0103EB0262084402F0FE4108441A
:10479000F8603868696920F0C00040EA01003860BC
:1047A0003868A96920F0200040EA010038603868C4
:1047B0004FF6F87120F0100038603869EA6920EA95
:1047C00001004FF4001140EAC2003861386808BFA8
:1047D0004FF4801140F01000002C386008BF4FF4F7
:1047E000002138680843386057F82C0C40F080608E
:1047F00047F82C0CFCF7CCFE044600BF57F82C0CF5
:10480000000107D4FCF7C4FE001B0328F6D30320E5
:1048100001B0F0BD002001B0F0BD000000000000BC
:10482000F0B581B044F22C47C5F6020757F8042CC6
:1048300002F00302032A03D1012001B0F0BD00BF42
:10484000054657F82C0C0C4620F0805047F82C0CED
:10485000FCF79EFE064600BF57F82C0C800005D5DD
:10486000FCF796FE801B0228F6D964E057F8040C8A
:10487000EE6895E80E0020F07C70012C40EA0150B3
:10488000A2F101016FF35F214FF47E4202EB43225C
:1048900047F8040C92B24FF0FE4302EB01004FF4D4
:1048A000FE012A6901EB064101F4FE0103EB0262FD
:1048B000084402F0FE41084478613868696920F4D0
:1048C000406040EA010038603868A96920F400704F
:1048D00040EA0100386038684FF6F87120F48070C3
:1048E0003860B869EA6920EA01004FF0807140EA57
:1048F000C200B861386808BF4FF4000140F480700E
:10490000002C386008BF4FF48001386808433860D5
:1049100057F82C0C40F0805047F82C0CFCF738FE70
:10492000044600BF57F82C0C800007D4FCF730FE7B
:10493000001B0328F6D3032001B0F0BD002001B016
:10494000F0BD00000000000070B544F20806044607
:10495000C5F60006716821F0400171603168890672
:1049600016D42068C16821F0A001C160FCF710FED8
:10497000054600BF2068C068800627D4FCF708FE03
:10498000401BB0F57A7FF5D9032084F8210070BD73
:10499000306820F0200030602068C16821F0A0015C
:1049A000C160FCF7F5FD05462068C06880060FD49D
:1049B000FCF7EEFD401BB0F57A7FF5D9032084F8B3
:1049C0002100316841F02001316070BD002070BDD0
:1049D0000020316841F02001316070BD000000000E
:1049E00002467B20108000205180704700000000AC
:1049F000704700000000000000291CBF5521017015
:104A0000002070470000000001464288002042F468
:104A10006E424A8070470000FCF7A6BE000000000E
:104A2000B0B59CB044F6180409A84C21C5F60204A0
:104A3000FBF7B9FD02200025CDE90755CDE9055565
:104A4000CDE90355CDE90155FDF766F840F22C405C
:104A50000095C5F60000016821F0010101600068C1
:104A600000F001000090206840F440402060206881
:104A700000F44040009000982068800409D4206829
:104A800080045CBF20685FEA804002D42068800414
:104A9000F2D5092009904FF4A0200A9001200E9031
:104AA0000221149018200024CDE915010420CDE93D
:104AB00017010C20199009A8CDE91211CDE91A446B
:104AC000FEF71EFA08B1FBF787FF3F200190032095
:104AD0000121CDE9020401A80894CDE90444CDE9FF
:104AE0000644FDF7C5FF08B1FBF776FF1CB0B0BD6B
:104AF0004EF6885042F2000CCEF20000C5F2002CB7
:104B0000016841F470010160DCF8000000F00F0062
:104B1000062806D8DCF80000072161F30300CCF872
:104B2000000044F200404EF67F52C5F60200CEF679
:104B3000F622016841F00101016000210161036872
:104B40001A400260DCF80020120706D5DCF80020CD
:104B5000072363F30302CCF8002040F200228161B6
:104B6000C161C0F20222016282620022C0F2FF1221
:104B7000C26240F28022C0F201120263416382638A
:104B8000C16302644164026822F48022026001660B
:104B900041F20000C5F600400068B1EB507F05D13E
:104BA00048F208100121C5F20010016044F2000033
:104BB00043F2D201C5F200200160704700000000FE
:104BC000816ACA070CD18A0715D44A071ED40A077E
:104BD00027D4CA0630D48A0639D44A0655D541E0CE
:104BE0000268D0F82CC0536823F4003343EA0C0366
:104BF00053608A07E9D50268D0F830C0536823F4BF
:104C0000803343EA0C0353604A07E0D50268D0F8CA
:104C100034C0536823F4802343EA0C0353600A072B
:104C2000D7D50268D0F838C0536823F4004343EA6C
:104C30000C035360CA06CED50268D0F83CC0936816
:104C400023F4805343EA0C0393608A06C5D50268B7
:104C5000D0F840C0936823F4005343EA0C039360F8
:104C60004A0612D50268D0F844C0BCF5801F5368CC
:104C700023F4801343EA0C03536006D1536823F4F2
:104C8000C00C836C43EA0C035360090658BF70479D
:104C90000168C06C4A6822F40022104348607047E3
:104CA000806B0021A0F85E10A0F85610FEF730BF10
:104CB000B0F860200168D0F88830222B40F09E8048
:104CC000D1F824C0836D02EA0C0223F8022B83651D
:104CD000B0F85E20013AA0F85E20B0F85E20002A0D
:104CE00018BF704751E8001F026821F4907142E834
:104CF0000013FBB1016851E8001F026821F49071B4
:104D000042E80013B3B1016851E8001F026821F4C2
:104D1000907142E80013002B1FBF016851E8001F8B
:104D2000026821F490711CBF42E80013002B01D0EF
:104D30000168D7E7016851E8021F026821F001010C
:104D400042E80213F3B1016851E8021F026821F042
:104D5000010142E80213002B1FBF016851E8021F46
:104D6000026821F001011CBF42E80213002B09D0A8
:104D7000016851E8021F026821F0010142E80213B4
:104D8000002BD7D12021C0F8881000210167C26E06
:104D9000012A39D1C166016851E8001F026821F07B
:104DA000100142E80013F3B1016851E8001F0268E6
:104DB00021F0100142E80013002B1FBF016851E8E9
:104DC000001F026821F010011CBF42E80013002BF5
:104DD00009D0016851E8001F026821F0100142E883
:104DE0000013002BD7D10168CA69D20601D5102261
:104DF0000A62B0F85C10FEF7EBBD00BF886940F0B6
:104E000008008861704700BFFFF75EBB000000002C
:104E10002DE9F04F81B004460068B4F86050C369D2
:104E200001688268D4F88870222F65D1B4F8687060
:104E3000002F18BF13F0200366D1B4F85E000028DD
:104E40005ED0B4F8681088425AD2206850E8020F49
:104E5000216820F0805041E80202F2B1206850E859
:104E6000020F216820F0805041E80202002A1FBF93
:104E7000206850E8020F216820F080501CBF41E8F4
:104E80000202002A09D0206850E8020F216820F0B1
:104E9000805041E80202002AD7D144F6B140C0F662
:104EA00000002067206850E8000F216840F02000D3
:104EB00041E8000222B3206850E8000F216840F06A
:104EC000200041E80002002A1FBF206850E8000FC0
:104ED000216840F020001CBF41E80002002A0FD0EA
:104EE000206850E8000F216840F0200041E80002EF
:104EF000002AD7D104E000BF816941F00801816137
:104F000001B0BDE8F08F00BF4FF6FE7601F4807867
:104F100002F00107CEF6FF764FF020094FF0000AAD
:104F2000416AA26D294022F8021BA265B4F85E1006
:104F30000139A4F85E10D0F81CB05FEA4B7130D094
:104F40005FEACB7218BFB8F1000F03D15FEA8B7232
:104F50000BD413E001220262D4F88C2042F001024B
:104F6000C4F88C205FEA8B7208D53FB1022202623E
:104F7000D4F88C2042F00402C4F88C20002908D513
:104F80003FB104210162D4F88C0040F00200C4F863
:104F90008C00D4F88C0020B12046FEF7B9FDC4F88F
:104FA0008CA0B4F85E00002840F08880206850E8AB
:104FB000000F216820F4807041E80002F2B12068FF
:104FC00050E8000F216820F4807041E80002002AB8
:104FD0001FBF206850E8000F216820F480701CBFBC
:104FE00041E80002002A09D0206850E8000F21683B
:104FF00020F4807041E80002002AD7D1206850E8F0
:10500000020F2168304041E80202DAB1206850E81E
:10501000020F2168304041E80202002A1FBF2068C9
:1050200050E8020F216830401CBF41E80202002A0C
:1050300008D0206850E8020F2168304041E80202A1
:10504000002ADBD1C4F88890C4F870A0E06E012873
:105050003AD1C4F86CA0206850E8000F216820F015
:10506000100041E80002F2B1206850E8000F21680A
:1050700020F0100041E80002002A1FBF206850E81D
:10508000000F216820F010001CBF41E80002002A38
:1050900009D0206850E8000F216820F0100041E896
:1050A0000002002AD7D12068C169C90601D51021A4
:1050B0000162B4F85C102046FEF78AFC5FEA8B6060
:1050C0007FF5BBAE20682BE72046FFF7FDF95FEACE
:1050D0008B60F7D4B1E60000B0F860100268D0F839
:1050E0008830222B40F09E80526A836D11401970E7
:1050F000816D01318165B0F85E100139A0F85E1054
:10510000B0F85E10002918BF7047016851E8001F11
:10511000026821F4907142E80013FBB1016851E884
:10512000001F026821F4907142E80013002B1FBF9A
:10513000016851E8001F026821F490711CBF42E829
:105140000013002B0AD0016851E8001F026821F407
:10515000907142E80013002BD7D100BF016851E8DD
:10516000021F026821F0010142E80213F3B1016855
:1051700051E8021F026821F0010142E80213002BEE
:105180001FBF016851E8021F026821F001011CBF26
:1051900042E80213002B09D0016851E8021F02689F
:1051A00021F0010142E80213002BD7D12021C0F8E1
:1051B000881000210167C26E012A39D1C1660168D9
:1051C00051E8001F026821F0100142E80013F3B11A
:1051D000016851E8001F026821F0100142E8001345
:1051E000002B1FBF016851E8001F026821F0100169
:1051F0001CBF42E80013002B09D0016851E8001FD2
:10520000026821F0100142E80013002BD7D1016899
:10521000CA69D20601D510220A62B0F85C10FEF706
:10522000D7BB00BF906940F008009061704700BF95
:10523000FFF74AB9000000002DE9F04F81B00446A5
:105240000068B4F86050C36901688268D4F8887057
:10525000222F65D1B4F86870002F18BF13F0200317
:1052600066D1B4F85E0000285ED0B4F868108842B9
:105270005AD2206850E8020F216820F0805041E89F
:105280000202F2B1206850E8020F216820F080503D
:1052900041E80202002A1FBF206850E8020F21687F
:1052A00020F080501CBF41E80202002A09D020688B
:1052B00050E8020F216820F0805041E80202002AE5
:1052C000D7D145F2D900C0F600002067206850E829
:1052D000000F216840F0200041E8000222B320685E
:1052E00050E8000F216840F0200041E80002002A49
:1052F0001FBF206850E8000F216840F020001CBF4D
:1053000041E80002002A0FD0206850E8000F216811
:1053100040F0200041E80002002AD7D104E000BF9D
:10532000816941F00801816101B0BDE8F08F00BFE3
:105330004FF6FE7601F4807802F00107CEF6FF7694
:105340004FF020094FF0000A406AA16D2840087014
:10535000A06D0130A0652068B4F85E100139A4F892
:105360005E10D0F81CB05FEA4B7130D05FEACB72B0
:1053700018BFB8F1000F03D15FEA8B720BD413E0B2
:1053800001220262D4F88C2042F00102C4F88C2081
:105390005FEA8B7208D53FB102220262D4F88C20FA
:1053A00042F00402C4F88C20002908D53FB1042142
:1053B0000162D4F88C0040F00200C4F88C00D4F8EC
:1053C0008C0020B12046FEF7A3FBC4F88CA0B4F8F3
:1053D0005E00002840F08880206850E8000F2168B7
:1053E00020F4807041E80002F2B1206850E8000F1C
:1053F000216820F4807041E80002002A1FBF206865
:1054000050E8000F216820F480701CBF41E80002C2
:10541000002A09D0206850E8000F216820F480702D
:1054200041E80002002AD7D1206850E8020F216825
:10543000304041E80202DAB1206850E8020F2168EA
:10544000304041E80202002A1FBF206850E8020FE6
:10545000216830401CBF41E80202002A08D02068C1
:1054600050E8020F2168304041E80202002ADBD1F7
:10547000C4F88890C4F870A0E06E01283AD1C4F84E
:105480006CA0206850E8000F216820F0100041E86F
:105490000002F2B1206850E8000F216820F01000EF
:1054A00041E80002002A1FBF206850E8000F216871
:1054B00020F010001CBF41E80002002A09D020683B
:1054C00050E8000F216820F0100041E80002002A97
:1054D000D7D12068C169C90601D510210162B4F88D
:1054E0005C102046FEF774FA5FEA8B607FF5B9AE78
:1054F000206829E72046FEF7E7FF5FEA8B60F7D4D4
:10550000AFE600000000000070B584B004460068FB
:1055100004F1080340F6004EE669C5F6000E0ECB16
:10552000194363690B4346F6F3110568CCF6FF7126
:10553000334329401943016041684FF2FF4321F48E
:105540004051704541EA02014160A269C1F2FF1376
:105550001CBF216A0A43816844F2544C1940C5F6C5
:10556000020C1143816047F2FF72C16AC4F200026B
:1055700021F00F01656A90424FF0800341EA050176
:10558000C16221DD40F6FF71C4F2010188422FDDC6
:10559000704500F0FB8041F20041C4F201018842F5
:1055A00005D041F20001C4F20101884247D1DCF884
:1055B0000010C1F3C202062A80F0F08047F27A316F
:1055C000C0F6000139E000BF44F6FF31C4F200012B
:1055D00088421BDC44F20041C4F20001884221D021
:1055E00044F60001C4F2000188421BD027E000BF4E
:1055F00047F60001C4F20001884213D047F600418B
:10560000C4F2000188420DD019E000BF44F6004109
:10561000C4F20001884205D045F20001C4F2000145
:1056200088420CD1DCF8001001F00702062A80F055
:10563000B58047F28031C0F600018B181B787045A9
:1056400040F60010C0F23D0000F0B080B6F5004F0B
:1056500040F04E80402B4FF0010100F2A281DFE8C4
:1056600013F041001D01A001A0012301A001A00130
:10567000A0012B01A001A001A001A001A001A00197
:10568000A0013301A001A001A001A001A001A0017F
:10569000A001A001A001A001A001A001A001A00102
:1056A000A0014301A001A001A001A001A001A0014F
:1056B000A001A001A001A001A001A001A001A001E2
:1056C000A001A001A001A001A001A001A001A001D2
:1056D000A001A001A001A001A001A001A001A001C2
:1056E000A0014101FDF720FB002840F0DA80E9E04D
:1056F000402B4FF0010100F25481DFE813F041002C
:1057000013015201520119015201520152012101AA
:10571000520152015201520152015201520129011A
:1057200052015201520152015201520152015201E1
:1057300052015201520152015201520152013901EA
:1057400052015201520152015201520152015201C1
:1057500052015201520152015201520152015201B1
:1057600052015201520152015201520152015201A1
:1057700052015201520152015201520152013701AC
:10578000FDF7D2FA002840F0D080DFE0DCF804100A
:1057900001F00702062A01D286A14EE78023704558
:1057A00040F60010C0F23D007FF450AF9A1E012178
:1057B0001E2A27D8DFE812F02000F5002C00F500A3
:1057C000F500F5003400F500F500F500F500F500F2
:1057D000F500F5003C00F500F500F500F500F500DA
:1057E000F500F500F500F500F500F500F500F50011
:1057F000F500F500490000BFFCF7C2F9B0B1656AD9
:1058000023E000BF402B40F0CC804FF400401CE070
:1058100001A8FCF7C9F902980028F0D106E000BF02
:1058200001A8FCF759FA02980028E8D10021B8E055
:105830005CF8540C800649F20000C0F2D03004D568
:105840005CF8541CC1F3C101C84047F2963162684C
:10585000C0F6000131F81510B0FBF1F002EB420187
:1058600088424FF00101C0F09C801303984200F27F
:105870009880010E0023000210EB520041F100015C
:10588000FAF7D4FD4FF60052A0F54071C0F20F02B6
:105890009142C0F08080012183E000BFFDF774FADF
:1058A00080B1656A20E000BF01A8FCF77DF902988D
:1058B0000028F6D106E000BF01A8FCF70DFA029817
:1058C0000028EED100216CE05CF8540C800649F20F
:1058D0000000C0F2D03007D55CF8541CC1F3C10100
:1058E000C84001E04FF4004047F29631C0F6000195
:1058F00031F81510B0FBF1F061684A0802EB400086
:105900004FF6EF72B0FBF1F0A0F11001914207D811
:105910004FF6F0710140C0F3420008443BE000BF85
:1059200001213EE0FDF730FA80B1656A20E000BF5A
:1059300001A8FCF739F902980028F6D106E000BF6B
:1059400001A8FCF7C9F902980028EED1002128E04F
:105950005CF8540C800649F20000C0F2D03007D544
:105960005CF8541CC1F3C101C84001E04FF4004091
:1059700047F296316268C0F6000131F81510B0FBAD
:10598000F1F000EB5200B0FBF2F0A0F110014FF685
:10599000EF72914204D82168C860002101E000BF85
:1059A00001214FF00110A0660020C4E91C00084648
:1059B00004B070BD02040810204000000000000088
:1059C00081650023A0F85C20A0F85E208168036751
:1059D00051B1B1F1805F0BD0B1F5805F0CD101699D
:1059E00021B940F2FF110AE0016939B9FF2106E04F
:1059F000016919B13F2102E0002100E07F21A0F8F8
:105A000060100021C0F88C102221C0F888100168B5
:105A100051E8021FD0F800C041F001014CE8021328
:105A20000BB3016851E8021FD0F800C041F001013A
:105A30004CE80213002B1FBF016851E8021FD0F889
:105A400000C041F001011CBF4CE80213002B0AD03A
:105A5000016851E8021FD0F800C041F001014CE894
:105A60000213002BD3D1416EB1F1005F03D1B0F826
:105A70006810914248D98168B1F5805F01690BD106
:105A8000002951D045F2D901C0F60001016700217B
:105A900080F880100BE000BF45F2D9020029C0F663
:105AA000000202674FF0000180F8801044D00168C6
:105AB00051E8001F026841F4907142E80013002B86
:105AC00000F0CA80016851E8001F026841F490713B
:105AD00042E80013002B1FBF016851E8001F026855
